{
  "_format": "hh-sol-artifact-1",
  "contractName": "MRZTest",
  "sourceName": "contracts/MRZTest.sol",
  "abi": [
    {
      "inputs": [],
      "stateMutability": "nonpayable",
      "type": "constructor"
    },
    {
      "inputs": [
        {
          "internalType": "address",
          "name": "sender",
          "type": "address"
        },
        {
          "internalType": "uint256",
          "name": "tokenId",
          "type": "uint256"
        },
        {
          "internalType": "address",
          "name": "owner",
          "type": "address"
        }
      ],
      "name": "ERC721IncorrectOwner",
      "type": "error"
    },
    {
      "inputs": [
        {
          "internalType": "address",
          "name": "operator",
          "type": "address"
        },
        {
          "internalType": "uint256",
          "name": "tokenId",
          "type": "uint256"
        }
      ],
      "name": "ERC721InsufficientApproval",
      "type": "error"
    },
    {
      "inputs": [
        {
          "internalType": "address",
          "name": "approver",
          "type": "address"
        }
      ],
      "name": "ERC721InvalidApprover",
      "type": "error"
    },
    {
      "inputs": [
        {
          "internalType": "address",
          "name": "operator",
          "type": "address"
        }
      ],
      "name": "ERC721InvalidOperator",
      "type": "error"
    },
    {
      "inputs": [
        {
          "internalType": "address",
          "name": "owner",
          "type": "address"
        }
      ],
      "name": "ERC721InvalidOwner",
      "type": "error"
    },
    {
      "inputs": [
        {
          "internalType": "address",
          "name": "receiver",
          "type": "address"
        }
      ],
      "name": "ERC721InvalidReceiver",
      "type": "error"
    },
    {
      "inputs": [
        {
          "internalType": "address",
          "name": "sender",
          "type": "address"
        }
      ],
      "name": "ERC721InvalidSender",
      "type": "error"
    },
    {
      "inputs": [
        {
          "internalType": "uint256",
          "name": "tokenId",
          "type": "uint256"
        }
      ],
      "name": "ERC721NonexistentToken",
      "type": "error"
    },
    {
      "anonymous": false,
      "inputs": [
        {
          "indexed": true,
          "internalType": "address",
          "name": "owner",
          "type": "address"
        },
        {
          "indexed": true,
          "internalType": "address",
          "name": "approved",
          "type": "address"
        },
        {
          "indexed": true,
          "internalType": "uint256",
          "name": "tokenId",
          "type": "uint256"
        }
      ],
      "name": "Approval",
      "type": "event"
    },
    {
      "anonymous": false,
      "inputs": [
        {
          "indexed": true,
          "internalType": "address",
          "name": "owner",
          "type": "address"
        },
        {
          "indexed": true,
          "internalType": "address",
          "name": "operator",
          "type": "address"
        },
        {
          "indexed": false,
          "internalType": "bool",
          "name": "approved",
          "type": "bool"
        }
      ],
      "name": "ApprovalForAll",
      "type": "event"
    },
    {
      "anonymous": false,
      "inputs": [
        {
          "indexed": true,
          "internalType": "address",
          "name": "from",
          "type": "address"
        },
        {
          "indexed": true,
          "internalType": "address",
          "name": "to",
          "type": "address"
        },
        {
          "indexed": true,
          "internalType": "uint256",
          "name": "tokenId",
          "type": "uint256"
        }
      ],
      "name": "Transfer",
      "type": "event"
    },
    {
      "inputs": [],
      "name": "MAX_SUPPLY",
      "outputs": [
        {
          "internalType": "uint256",
          "name": "",
          "type": "uint256"
        }
      ],
      "stateMutability": "view",
      "type": "function"
    },
    {
      "inputs": [
        {
          "internalType": "address",
          "name": "to",
          "type": "address"
        },
        {
          "internalType": "uint256",
          "name": "tokenId",
          "type": "uint256"
        }
      ],
      "name": "approve",
      "outputs": [],
      "stateMutability": "nonpayable",
      "type": "function"
    },
    {
      "inputs": [
        {
          "internalType": "address",
          "name": "owner",
          "type": "address"
        }
      ],
      "name": "balanceOf",
      "outputs": [
        {
          "internalType": "uint256",
          "name": "",
          "type": "uint256"
        }
      ],
      "stateMutability": "view",
      "type": "function"
    },
    {
      "inputs": [
        {
          "internalType": "uint256",
          "name": "tokenId",
          "type": "uint256"
        }
      ],
      "name": "getApproved",
      "outputs": [
        {
          "internalType": "address",
          "name": "",
          "type": "address"
        }
      ],
      "stateMutability": "view",
      "type": "function"
    },
    {
      "inputs": [
        {
          "internalType": "address",
          "name": "owner",
          "type": "address"
        },
        {
          "internalType": "address",
          "name": "operator",
          "type": "address"
        }
      ],
      "name": "isApprovedForAll",
      "outputs": [
        {
          "internalType": "bool",
          "name": "",
          "type": "bool"
        }
      ],
      "stateMutability": "view",
      "type": "function"
    },
    {
      "inputs": [
        {
          "internalType": "uint256",
          "name": "quantity",
          "type": "uint256"
        }
      ],
      "name": "mint",
      "outputs": [],
      "stateMutability": "nonpayable",
      "type": "function"
    },
    {
      "inputs": [],
      "name": "name",
      "outputs": [
        {
          "internalType": "string",
          "name": "",
          "type": "string"
        }
      ],
      "stateMutability": "view",
      "type": "function"
    },
    {
      "inputs": [],
      "name": "owner",
      "outputs": [
        {
          "internalType": "address",
          "name": "",
          "type": "address"
        }
      ],
      "stateMutability": "view",
      "type": "function"
    },
    {
      "inputs": [
        {
          "internalType": "uint256",
          "name": "tokenId",
          "type": "uint256"
        }
      ],
      "name": "ownerOf",
      "outputs": [
        {
          "internalType": "address",
          "name": "",
          "type": "address"
        }
      ],
      "stateMutability": "view",
      "type": "function"
    },
    {
      "inputs": [
        {
          "internalType": "address",
          "name": "from",
          "type": "address"
        },
        {
          "internalType": "address",
          "name": "to",
          "type": "address"
        },
        {
          "internalType": "uint256",
          "name": "tokenId",
          "type": "uint256"
        }
      ],
      "name": "safeTransferFrom",
      "outputs": [],
      "stateMutability": "nonpayable",
      "type": "function"
    },
    {
      "inputs": [
        {
          "internalType": "address",
          "name": "from",
          "type": "address"
        },
        {
          "internalType": "address",
          "name": "to",
          "type": "address"
        },
        {
          "internalType": "uint256",
          "name": "tokenId",
          "type": "uint256"
        },
        {
          "internalType": "bytes",
          "name": "data",
          "type": "bytes"
        }
      ],
      "name": "safeTransferFrom",
      "outputs": [],
      "stateMutability": "nonpayable",
      "type": "function"
    },
    {
      "inputs": [
        {
          "internalType": "address",
          "name": "operator",
          "type": "address"
        },
        {
          "internalType": "bool",
          "name": "approved",
          "type": "bool"
        }
      ],
      "name": "setApprovalForAll",
      "outputs": [],
      "stateMutability": "nonpayable",
      "type": "function"
    },
    {
      "inputs": [
        {
          "internalType": "bytes4",
          "name": "interfaceId",
          "type": "bytes4"
        }
      ],
      "name": "supportsInterface",
      "outputs": [
        {
          "internalType": "bool",
          "name": "",
          "type": "bool"
        }
      ],
      "stateMutability": "view",
      "type": "function"
    },
    {
      "inputs": [],
      "name": "symbol",
      "outputs": [
        {
          "internalType": "string",
          "name": "",
          "type": "string"
        }
      ],
      "stateMutability": "view",
      "type": "function"
    },
    {
      "inputs": [
        {
          "internalType": "uint256",
          "name": "tokenId",
          "type": "uint256"
        }
      ],
      "name": "tokenURI",
      "outputs": [
        {
          "internalType": "string",
          "name": "",
          "type": "string"
        }
      ],
      "stateMutability": "view",
      "type": "function"
    },
    {
      "inputs": [],
      "name": "totalSupply",
      "outputs": [
        {
          "internalType": "uint256",
          "name": "",
          "type": "uint256"
        }
      ],
      "stateMutability": "view",
      "type": "function"
    },
    {
      "inputs": [
        {
          "internalType": "address",
          "name": "from",
          "type": "address"
        },
        {
          "internalType": "address",
          "name": "to",
          "type": "address"
        },
        {
          "internalType": "uint256",
          "name": "tokenId",
          "type": "uint256"
        }
      ],
      "name": "transferFrom",
      "outputs": [],
      "stateMutability": "nonpayable",
      "type": "function"
    },
    {
      "inputs": [],
      "name": "withdraw",
      "outputs": [],
      "stateMutability": "nonpayable",
      "type": "function"
    }
  ],
  "bytecode": "0x60a03462000320576001600160401b0390604090808201838111828210176200030a57825260088152602092671354968815195cdd60c21b848301528251838101818110838211176200030a57845260048152631354969560e21b858201528251908282116200030a5760008054926001958685811c95168015620002ff575b89861014620002eb578190601f9586811162000298575b5089908683116001146200023457849262000228575b5050600019600383901b1c191690861b1781555b8151938411620002145784548581811c9116801562000209575b88821014620001f557838111620001ad575b508692841160011462000147578394959650926200013b575b5050600019600383901b1c191690821b1790555b3360805251610e6190816200032682396080518181816105c501526106b70152f35b01519050388062000105565b9190601f1984169685845280842093905b8882106200019557505083859697106200017b575b505050811b01905562000119565b015160001960f88460031b161c191690553880806200016d565b80878596829496860151815501950193019062000158565b8582528782208480870160051c8201928a8810620001eb575b0160051c019086905b828110620001df575050620000ec565b838155018690620001cf565b92508192620001c6565b634e487b7160e01b82526022600452602482fd5b90607f1690620000da565b634e487b7160e01b81526041600452602490fd5b015190503880620000ac565b8480528a85208994509190601f198416865b8d82821062000281575050841162000267575b505050811b018155620000c0565b015160001960f88460031b161c1916905538808062000259565b8385015186558c9790950194938401930162000246565b9091508380528984208680850160051c8201928c8610620002e1575b918a91869594930160051c01915b828110620002d257505062000096565b8681558594508a9101620002c2565b92508192620002b4565b634e487b7160e01b83526022600452602483fd5b94607f16946200007f565b634e487b7160e01b600052604160045260246000fd5b600080fdfe608060408181526004918236101561001657600080fd5b600092833560e01c91826301ffc9a71461097b5750816306fdde03146108b0578163081812fc14610874578163095ea7b31461079757816318160ddd1461077857816323b872dd1461076057816332cb6b0c146107445781633ccfd60b146106a357816342842e0e1461067a5781636352211e1461064957816370a08231146105f45781638da5cb5b146105b057816395d89b4114610497578163a0712d68146102bd578163a22cb4651461021b578163b88d4fde1461018d578163c87b56dd1461013b575063e985e9c5146100eb57600080fd5b3461013757806003193601126101375760ff81602093610109610a26565b610111610a41565b6001600160a01b0391821683526005875283832091168252855220549151911615158152f35b5080fd5b8383346101375760203660031901126101375761015b6101899335610df0565b5081815161016881610a8c565b5280519161017583610a8c565b8252519182916020835260208301906109e6565b0390f35b91905034610217576080366003190112610217576101a9610a26565b6101b1610a41565b846064359467ffffffffffffffff8611610137573660238701121561013757850135946101e96101e087610ae0565b95519586610abe565b8585523660248783010111610137578561021496602460209301838801378501015260443591610c9b565b80f35b8280fd5b91905034610217578060031936011261021757610236610a26565b90602435918215158093036102b9576001600160a01b03169283156102a45750338452600560205280842083855260205280842060ff1981541660ff8416179055519081527f17307eab39ab6107e8899845ad3d59bd9653f200f220920489ca2b5937696c3160203392a380f35b836024925191630b61174360e31b8352820152fd5b8480fd5b905034610217576020908160031936011261049357803592600693845481810180911161048057606410610451576005811161042057923315908115875b868110610306578880f35b87549060001980831461040d57600192868482018c556103f657808c526002808752888d20546001600160a01b0316801515938e92908890866103c4575b506103af575b8383528852898220336bffffffffffffffffffffffff60a01b8254161790557fddf252ad1be2c89b69c2b068fc378daa952ba7f163c4a11628f55a4df523b3ef339280a461039857016102fb565b85516339e3563760e11b81528088018b9052602490fd5b338352600389528a832087815401905561034a565b600086815260046020526040902080546001600160a01b031916905583855260038b528c852090815401905538610344565b8751633250574960e11b8152808a018d9052602490fd5b634e487b7160e01b8b526011885260248bfd5b5091606492519162461bcd60e51b8352820152600c60248201526b09ac2f0406a40e0cae440e8f60a31b6044820152fd5b5091606492519162461bcd60e51b8352820152600a6024820152694d617820737570706c7960b01b6044820152fd5b634e487b7160e01b875260118452602487fd5b8380fd5b8284346105ad57806003193601126105ad578151918160019283549384811c918186169586156105a3575b6020968785108114610590578899509688969785829a52918260001461056957505060011461050e575b50505061018992916104ff910385610abe565b519282849384528301906109e6565b91908693508083527fb10e2d527612073b26eecdfd717e6a320cf44b4afac2b0732d9fcbe2b7fa0cf65b82841061055157505050820101816104ff6101896104ec565b8054848a018601528895508794909301928101610538565b60ff19168782015293151560051b860190930193508492506104ff915061018990506104ec565b634e487b7160e01b835260228a52602483fd5b92607f16926104c2565b80fd5b505034610137578160031936011261013757517f00000000000000000000000000000000000000000000000000000000000000006001600160a01b03168152602090f35b8284346105ad5760203660031901126105ad576001600160a01b03610617610a26565b169283156106345750806020938392526003845220549051908152f35b91516322718ad960e21b815291820152602490fd5b8284346105ad5760203660031901126105ad575061066960209235610df0565b90516001600160a01b039091168152f35b505034610137576102149061068e36610a57565b9192519261069b84610a8c565b858452610c9b565b9050346102175782600319360112610217577f00000000000000000000000000000000000000000000000000000000000000006001600160a01b0316903382900361071557508280808093479082821561070c575bf115610702575080f35b51903d90823e3d90fd5b506108fc6106f8565b606490602084519162461bcd60e51b835282015260096024820152682737ba1037bbb732b960b91b6044820152fd5b5050346101375781600319360112610137576020905160648152f35b83346105ad5761021461077236610a57565b91610afc565b5050346101375781600319360112610137576020906006549051908152f35b919050346102175780600319360112610217576107b2610a26565b916024356107bf81610df0565b33151580610861575b80610838575b610822576001600160a01b039485169482918691167f8c5be1e5ebec7d5bd14f71427d1e84f3dd0314c0f7b2291e5b200ac8c7c3b9258880a48452602052822080546001600160a01b031916909117905580f35b835163a9fbf51f60e01b81523381850152602490fd5b506001600160a01b03811686526005602090815284872033885290528386205460ff16156107ce565b506001600160a01b0381163314156107c8565b9050346102175760203660031901126102175791826020933561089681610df0565b50825283528190205490516001600160a01b039091168152f35b8284346105ad57806003193601126105ad5781519181825492600184811c91818616958615610971575b6020968785108114610590578899509688969785829a5291826000146105695750506001146109165750505061018992916104ff910385610abe565b91908693508280527f290decd9548b62a8d60345a988386fc84ba6bc95484008f6362f93160ef3e5635b82841061095957505050820101816104ff6101896104ec565b8054848a018601528895508794909301928101610940565b92607f16926108da565b849134610217576020366003190112610217573563ffffffff60e01b811680910361021757602092506380ac58cd60e01b81149081156109d5575b81156109c4575b5015158152f35b6301ffc9a760e01b149050836109bd565b635b5e139f60e01b811491506109b6565b919082519283825260005b848110610a12575050826000602080949584010152601f8019910116010190565b6020818301810151848301820152016109f1565b600435906001600160a01b0382168203610a3c57565b600080fd5b602435906001600160a01b0382168203610a3c57565b6060906003190112610a3c576001600160a01b03906004358281168103610a3c57916024359081168103610a3c579060443590565b6020810190811067ffffffffffffffff821117610aa857604052565b634e487b7160e01b600052604160045260246000fd5b90601f8019910116810190811067ffffffffffffffff821117610aa857604052565b67ffffffffffffffff8111610aa857601f01601f191660200190565b6001600160a01b039182169290918315610c8257600092828452826020956002875260409684888820541696879133151580610bec575b509060027fddf252ad1be2c89b69c2b068fc378daa952ba7f163c4a11628f55a4df523b3ef9284610bb9575b858352600381528b8320805460010190558683525289812080546001600160a01b0319168517905580a41692838303610b985750505050565b6064945051926364283d7b60e01b8452600484015260248301526044820152fd5b600087815260046020526040902080546001600160a01b0319169055848352600381528b83208054600019019055610b5f565b91939450915080610c41575b15610c0857859291879138610b33565b878688610c25576024915190637e27328960e01b82526004820152fd5b604491519063177e802f60e01b82523360048301526024820152fd5b503387148015610c66575b80610bf85750858252600481523385898420541614610bf8565b5086825260058152878220338352815260ff8883205416610c4c565b604051633250574960e11b815260006004820152602490fd5b929092610ca9838583610afc565b833b610cb6575b50505050565b604051630a85bd0160e11b8082523360048301526001600160a01b0392831660248301526044820194909452608060648201529493169260209290918590610d029060848301906109e6565b039483816000978189895af1869181610dac575b50610d77575050503d600014610d6e573d610d3081610ae0565b90610d3e6040519283610abe565b81528093823d92013e5b82519283610d6957604051633250574960e11b815260048101849052602490fd5b019050fd5b60609250610d48565b919450915063ffffffff60e01b1603610d94575038808080610cb0565b60249060405190633250574960e11b82526004820152fd5b9091508481813d8311610de9575b610dc48183610abe565b81010312610de557516001600160e01b031981168103610de5579038610d16565b8680fd5b503d610dba565b6000818152600260205260409020546001600160a01b0316908115610e13575090565b60249060405190637e27328960e01b82526004820152fdfea26469706673582212203a9c3450d43541b7c9a352b5105fbff5befaf60a44ea3d0e277cf314c860294564736f6c63430008140033",
  "linkReferences": {},
  "deployedLinkReferences": {}
}